:1000000002308A00752A0000FF00030E8301A5005C
:100010007F08A4000A08AF008A01A40E0408A60005
:100020002008A7002108A8002208A9002308AA0088
:1000300003170D080313AB0003170F080313AC00DD
:1000400003170C080313AD0003170E080313AE00CB
:10005000831383128C308400001C30280C18552820
:100060008B1D34280B185728260884002708A00069
:100070002808A1002908A2002A08A3002B080317BA
:100080008D0003132C0803178F0003132D0803178B
:100090008C0003132E0803178E0003132F088A0009
:1000A000250E8300FF0E7F0E09008A1112298A1186
:1000B00059280130B0070318B10A0B108A113428EF
:1000C0000B08C2008B13831603178C170C14000047
:1000D000000083120313C21B8B1703189828031701
:1000E0000C087F390313C20003170D080313C30064
:1000F00003170F080313C40042080C1E7D28990043
:10010000430803178D000313440803178F000313DC
:100110000B08C5008B13831603178C170C140000F3
:10012000000083120313C51B8B17C10B9828B82836
:1001300003170C0D0E0D7F390313C20003170D08B2
:100140000313C30003170F080313C40042080C1E57
:10015000A7289900430803178D00031344080317C9
:100160008F008D0A03198F0A03100313C10B602837
:100170000800C9010408C8004910831B4914420E35
:10018000F038C400C407E23EC500323EC700420852
:100190000F39C507C507C707E93EC600C607C6072A
:1001A000410E0F39C607C707C60DC70DC709C70DD2
:1001B00041080F39C707C40D0730C3000A30C7070D
:1001C000C603031CDF28C607C503031CE328C507B5
:1001D000C403031CE728C407C303031CEB284330F4
:1001E000840083130730480548138407473004020E
:1001F000031948170008A000031D0629481B0629FB
:10020000481A0E29C819062920300929C81548128C
:100210003030A00720080C1E0B299900840A481FC3
:10022000F6280800BA0A3A08023C0318DF29310808
:10023000B5003008B400BC1C9B29BB0A3408B607C3
:1002400035080318350FB707003003180130B80719
:10025000003003180130B9073B080A3C031D9B29F5
:1002600083103908C4003808C3003708C2003608B4
:10027000C100C801C701C6010A30C500831843295F
:10028000493084008313A001A101A201A301C90187
:10029000CA01CB01CC0148084704460445040319B0
:1002A00081292030CD000310C10DC20DC30DC40D36
:1002B000C90DCA0DCB0DCC0D48084C02031D6A298F
:1002C00047084B02031D6A2946084A02031D6A2992
:1002D00045084902031C7B294508C9024608031C3E
:1002E000460FCA024708031C470FCB024808031CED
:1002F000480FCC020314A00DA10DA20DA30DCD0B30
:10030000532949088000840A4A088000840A4B085F
:100310008000840A4C08800003302002B2002108CB
:10032000B3000030031C0130B302B901B801B701BA
:10033000B601BB01BC1035083302031CA829031DFC
:10034000A52934083202031CA8293C148716AA29BF
:100350003C1087123C1CB129BC18B129803087069B
:10036000B2298713E73003178D0001308F00031087
:1003700008300313C1006020103084003508C2002B
:100380003408C100B920EC3003178D0001308F0014
:1003900003140C300313C1006020103084003308B4
:1003A000C2003208C100B9200D300C1ED5299900B9
:1003B0000A300C1ED9299900B101B001BA018E0191
:1003C0009E308F0058308E000C108A113428D430A3
:1003D0006E10F3373A10253675102D10D430EE29F3
:1003E000EF29531DA012EC3A0D05000043346F10A5
:1003F000E3306910E4307410EC306910F4306E10A2
:10040000F337A0396F10F3306E34A1108A06000064
:100410003E3084008313000803191B2A0230A10018
:10042000A001A00B112AA10B102A9730A000A00B4D
:10043000172A800B0E2A08000B08BD008B138316A9
:1004400003178C170C140000000083120313BD1B4C
:100450008B1703170C087F390319722A0313BD0089
:1004600003170D080313BE0003170F080313BF0083
:100470003D080C1E392A99003E0803178D0003130E
:100480003F0803178F0003130B08C0008B1383165C
:1004900003178C170C140000000083120313C01BF9
:1004A0008B1703170C0D0E0D7F390319722A0313D6
:1004B000BD0003170D080313BE0003170F08031335
:1004C000BF003D080C1E622A99003E0803178D00EC
:1004D00003133F0803178F008D0A03198F0A0313B4
:1004E0001C2A031703138A11DC2A03081F3983000F
:1004F000713083168F000F089B110C309900A230C9
:100500009800903083129800B101B001B301B2019C
:10051000B501B401B901B801B701B601BA01BB0117
:100520003C10BC1003171F109F101F119F110313C5
:100530001F13003003179E0099019A0183169E0134
:1005400083129B0103138D128313043083168500DD
:100550008700831287138712C0308B048B15FF30FE
:10056000831696040C143530831290008E019E3051
:100570008F0058308E00B901B801B701B601BC1028
:100580000C30BD00FA30BE000822BD0BC22ABC14DC
:100590000719DE2A1E30BE0008220719DC2ABC1407
:1005A000B901B801B701B601BB01F63003178D00E0
:1005B00001308F0003131C2A071DDC2AC82A6300A0
:02400E00E43F8D
:00000001FF
;PIC16F690
;CRC=EF04  CREATED="14-Jul-19 23:54"
